{
  "_format": "hh-sol-artifact-1",
  "contractName": "Token",
  "sourceName": "contracts/Token.sol",
  "abi": [
    {
      "inputs": [],
      "stateMutability": "nonpayable",
      "type": "constructor"
    },
    {
      "inputs": [
        {
          "internalType": "address",
          "name": "account",
          "type": "address"
        }
      ],
      "name": "balanceOf",
      "outputs": [
        {
          "internalType": "uint256",
          "name": "",
          "type": "uint256"
        }
      ],
      "stateMutability": "view",
      "type": "function"
    },
    {
      "inputs": [],
      "name": "name",
      "outputs": [
        {
          "internalType": "string",
          "name": "",
          "type": "string"
        }
      ],
      "stateMutability": "view",
      "type": "function"
    },
    {
      "inputs": [],
      "name": "symbol",
      "outputs": [
        {
          "internalType": "string",
          "name": "",
          "type": "string"
        }
      ],
      "stateMutability": "view",
      "type": "function"
    },
    {
      "inputs": [],
      "name": "totalSupply",
      "outputs": [
        {
          "internalType": "uint256",
          "name": "",
          "type": "uint256"
        }
      ],
      "stateMutability": "view",
      "type": "function"
    },
    {
      "inputs": [
        {
          "internalType": "address",
          "name": "to",
          "type": "address"
        },
        {
          "internalType": "uint256",
          "name": "amount",
          "type": "uint256"
        }
      ],
      "name": "transfer",
      "outputs": [],
      "stateMutability": "nonpayable",
      "type": "function"
    }
  ],
  "bytecode": "0x60c0604052600b60808190526a29ba37b5b2b21021b7b4b760a91b60a090815261002c9160009190610084565b506040805180820190915260038082526253544360e81b602090920191825261005791600191610084565b50620f424060025534801561006b57600080fd5b5060025433600090815260036020526040902055610158565b8280546100909061011d565b90600052602060002090601f0160209004810192826100b257600085556100f8565b82601f106100cb57805160ff19168380011785556100f8565b828001600101855582156100f8579182015b828111156100f85782518255916020019190600101906100dd565b50610104929150610108565b5090565b5b808211156101045760008155600101610109565b600181811c9082168061013157607f821691505b6020821081141561015257634e487b7160e01b600052602260045260246000fd5b50919050565b61038d806101676000396000f3fe608060405234801561001057600080fd5b50600436106100575760003560e01c806306fdde031461005c57806318160ddd1461007a57806370a082311461009157806395d89b41146100ba578063a9059cbb146100c2575b600080fd5b6100646100d7565b6040516100719190610284565b60405180910390f35b61008360025481565b604051908152602001610071565b61008361009f36600461023a565b6001600160a01b031660009081526003602052604090205490565b610064610165565b6100d56100d036600461025b565b610172565b005b600080546100e490610306565b80601f016020809104026020016040519081016040528092919081815260200182805461011090610306565b801561015d5780601f106101325761010080835404028352916020019161015d565b820191906000526020600020905b81548152906001019060200180831161014057829003601f168201915b505050505081565b600180546100e490610306565b336000908152600360205260409020548111156101c95760405162461bcd60e51b81526020600482015260116024820152704e6f7420656e6f75676820746f6b656e7360781b604482015260640160405180910390fd5b33600090815260036020526040812080548392906101e89084906102ef565b90915550506001600160a01b038216600090815260036020526040812080548392906102159084906102d7565b90915550505050565b80356001600160a01b038116811461023557600080fd5b919050565b60006020828403121561024b578081fd5b6102548261021e565b9392505050565b6000806040838503121561026d578081fd5b6102768361021e565b946020939093013593505050565b6000602080835283518082850152825b818110156102b057858101830151858201604001528201610294565b818111156102c15783604083870101525b50601f01601f1916929092016040019392505050565b600082198211156102ea576102ea610341565b500190565b60008282101561030157610301610341565b500390565b600181811c9082168061031a57607f821691505b6020821081141561033b57634e487b7160e01b600052602260045260246000fd5b50919050565b634e487b7160e01b600052601160045260246000fdfea264697066735822122005bd3a44c8e73c1095c2e611077b844c55f5a56ce644a68044984d06e1259bfe64736f6c63430008040033",
  "linkReferences": {},
  "deployedLinkReferences": {}
}